:020000040000FA
:020000000528D1
:08000800090083160C3086008C
:10001000831286015520372086014830282055203C
:100020006530282055206C30282055206C30282041
:1000300055206F302820552021302820552045207C
:1000400055200D28A0000610200886004E20003400
:10005000A1002108F039860006144E20A10DA10D43
:10006000A10D210DF039860006144E200800203025
:1000700022202220222000302220E03022200030C6
:10008000222060302220452008000030222020302D
:1000900022200030222010302220003486146520D7
:1000A00065208610652065200800C830A200FA305F
:1000B000A30000000000000000000000000000009D
:1000C000A30B5928A20B57280800C830A400A40B82
:0400D0006728080095
:02400E00303F41
:00000001FF
